:100000000C942A000C9434000C9434000C943400AA
:100010000C9434000C9434000C9434000C94340090
:100020000C9434000C9434000C9434000C94340080
:100030000C9434000C9434000C9434000C94340070
:100040000C9434000C9434000C9434000C94340060
:100050000C94340011241FBECFE5D4E0DEBFCDBF29
:100060000E9436000C9470010C940000DF93CF9333
:100070000F92CDB7DEB760E875E280E090E00E94B5
:100080005300EAE3F0E08FEF80830E940E01898342
:1000900089818032D1F3ABE3B0E0EBE3F0E0808123
:1000A00081608C93F2CFDF93CF9300D000D000D04B
:1000B000CDB7DEB76B837C838D839E831A821982D2
:1000C000ABE2B0E0EBE2F0E080818F7E8C93ABE2BC
:1000D000B0E0EBE2F0E080818B7F8C93ABE2B0E0AC
:1000E000EBE2F0E0808182608C93AAE2B0E0EAE289
:1000F000F0E0808188618C93A0E4B0E0E0E4F0E07F
:10010000808180688C93A0E4B0E0E0E4F0E080813E
:1001100086608C93A0E4B0E0E0E4F0E080818F772B
:100120008C938B819C81AD81BE81880F991FAA1F02
:10013000BB1F880F991FAA1FBB1F880F991FAA1FDB
:10014000BB1F9C01AD0180E492E4AFE0B0E0BC01D4
:10015000CD010E944E01DA01C90101979A8389837A
:10016000E0E4F0E089819A81892F99278083E9E290
:10017000F0E08981808326960FB6F894DEBF0FBE2B
:10018000CDBFCF91DF910895DF93CF930F92CDB77D
:10019000DEB78983ECE2F0E089818083EBE2F0E076
:1001A0008081882F90E0807490700097B9F3ABE263
:1001B000B0E0EBE2F0E0808180648C930F90CF910F
:1001C000DF910895DF93CF9300D00F92CDB7DEB7C4
:1001D0009B838A8319820EC08981282F30E08A810F
:1001E0009B81FC01E20FF31F80810E94C400898182
:1001F0008F5F89838981282F30E08A819B81FC0170
:10020000E20FF31F8081882339F780E00E94C40049
:100210000F900F900F90CF91DF910895DF93CF93C0
:10022000CDB7DEB7EBE2F0E080818823DCF7ECE2CB
:10023000F0E08081CF91DF9108950F931F93DF93BA
:10024000CF9300D00F92CDB7DEB79B838A831982FC
:100250000FC08981282F30E08A819B818C01020F99
:10026000131F0E940E01F801808389818F5F8983AB
:10027000ECE2F0E08081882361F78981282F30E06B
:100280008A819B81FC01E20FF31F10820F900F9077
:100290000F90CF91DF911F910F910895A1E21A2E37
:1002A000AA1BBB1BFD010DC0AA1FBB1FEE1FFF1F1A
:1002B000A217B307E407F50720F0A21BB30BE40B6A
:1002C000F50B661F771F881F991F1A9469F76095B1
:1002D0007095809590959B01AC01BD01CF0108956B
:0402E000F894FFCFC0
:00000001FF
